{
  "contractName": "Bank",
  "abi": [
    {
      "inputs": [],
      "payable": false,
      "stateMutability": "nonpayable",
      "type": "constructor"
    },
    {
      "constant": true,
      "inputs": [],
      "name": "getBalance",
      "outputs": [
        {
          "name": "",
          "type": "uint256"
        }
      ],
      "payable": false,
      "stateMutability": "view",
      "type": "function"
    },
    {
      "constant": false,
      "inputs": [
        {
          "name": "_amount",
          "type": "uint256"
        }
      ],
      "name": "withdraw",
      "outputs": [
        {
          "name": "",
          "type": "uint256"
        }
      ],
      "payable": false,
      "stateMutability": "nonpayable",
      "type": "function"
    },
    {
      "constant": false,
      "inputs": [
        {
          "name": "_amount",
          "type": "uint256"
        }
      ],
      "name": "deposit",
      "outputs": [
        {
          "name": "",
          "type": "uint256"
        }
      ],
      "payable": false,
      "stateMutability": "nonpayable",
      "type": "function"
    }
  ],
  "bytecode": "0x608060405234801561001057600080fd5b506001600081905550610154806100286000396000f3fe608060405234801561001057600080fd5b50600436106100415760003560e01c806312065fe0146100465780632e1a7d4d14610064578063b6b55f25146100a6575b600080fd5b61004e6100e8565b6040518082815260200191505060405180910390f35b6100906004803603602081101561007a57600080fd5b81019080803590602001909291905050506100f1565b6040518082815260200191505060405180910390f35b6100d2600480360360208110156100bc57600080fd5b8101908080359060200190929190505050610108565b6040518082815260200191505060405180910390f35b60008054905090565b600081600054036000819055506000549050919050565b60008160005401600081905550600054905091905056fea265627a7a72305820a203560d50b9c4799d4bbfca89845e669131095c9878718028df874cfb2f78f764736f6c63430005090032",
  "source": "pragma solidity ^0.5.9;\r\n\r\ncontract Bank{\r\n    uint balance;\r\n    \r\n    constructor() public{\r\n        balance = 1;\r\n    }\r\n    \r\n    function getBalance() view external returns(uint){\r\n        return balance;\r\n    }\r\n    \r\n    function withdraw(uint _amount) external returns(uint){\r\n        balance = balance - _amount;\r\n        return balance;\r\n    }\r\n    \r\n    function deposit(uint _amount) external returns(uint){\r\n        balance = balance + _amount;\r\n        return balance;\r\n    }\r\n    \r\n    \r\n}",
  "sourcePath": "C:/TruffleProjects/bank/contracts/Bank.sol",
  "compiler": {
    "name": "solc",
    "version": "0.5.9+commit.e560f70d.Emscripten.clang"
  },
  "schemaVersion": "3.2.5",
  "updatedAt": "2020-10-05T17:16:06.194Z",
  "networkType": "ethereum",
  "devdoc": {
    "methods": {}
  },
  "userdoc": {
    "methods": {}
  }
}